:100000000C947F000C94A7000C94A7000C94A700FC
:100010000C94A7000C94A7000C94A7000C94A700C4
:100020000C94A7000C94A7000C94A7000C94A700B4
:100030000C94A7000C94A7000C94A7000C94A700A4
:100040000C9488040C94A7000C94F8040C94D2042B
:100050000C94A7000C94A7000C94A7000C94A70084
:100060000C94A7000C94A7005A73757445746865C6
:10007000726E65745544503A3A626567696E5061B4
:10008000636B657428636F6E73742063686172209C
:100090002A686F73742C2075696E7431365F742012
:1000A000706F7274293B206973206E6F74207375B2
:1000B00070706F727465642120536F7272792100C1
:1000C00000000000250028002B0000000000240094
:1000D00027002A00040404040404040402020202A7
:1000E00002020303030303030102040810204080FB
:1000F0000102040810200102040810202A0511241E
:100100001FBECFEFD8E0DEBFCDBF12E0A0E0B1E070
:10011000E0E2F1E102C005900D92A83AB107D9F7EB
:1001200023E0A8EAB2E001C01D92A63AB207E1F7C7
:1001300010E0CFE7D0E004C02197FE010E946408E0
:10014000CE37D107C9F70E94A9050C948E080C94EC
:100150000000FC01538D448D252F30E0842F90E06A
:10016000821B930B541710F0CF96089501970895B2
:10017000FC01918D828D981761F0A28DAE0FBF2F7B
:10018000B11D5D968C91928D9F5F9F73928F90E0D1
:1001900008958FEF9FEF0895FC01918D828D981740
:1001A00031F0828DE80FF11D858D90E008958FEF7D
:1001B0009FEF0895FC01918D228D892F90E0805C46
:1001C0009F4F821B91098F7399270895FC01A48D7D
:1001D000A80FB92FB11DA35ABF4F2C91848D90E069
:1001E00001968F739927848FA689B7892C93A0894C
:1001F000B1898C91837080648C93938D848D9813D6
:1002000006C00288F389E02D80818F7D8083089568
:10021000EF92FF920F931F93CF93DF93EC0181E056
:10022000888F9B8D8C8D98131AC0E889F9898081FD
:1002300085FF15C09FB7F894EE89FF896083E88930
:10024000F98980818370806480839FBF81E090E022
:10025000DF91CF911F910F91FF90EF900895F62EAF
:100260000B8D10E00F5F1F4F0F731127E02E8C8D49
:100270008E110CC00FB607FCFACFE889F98980818E
:1002800085FFF5CFCE010E94E600F1CFEB8DEC0F9C
:10029000FD2FF11DE35AFF4FF0829FB7F8940B8FAB
:1002A000EA89FB8980818062CFCFCF93DF93EC0115
:1002B000888D8823B9F0AA89BB89E889F9898C914E
:1002C00085FD03C0808186FD0DC00FB607FCF7CF0A
:1002D0008C9185FFF2CF808185FFEDCFCE010E940A
:1002E000E600E9CFDF91CF91089582EC92E00E9481
:1002F000DA0021E0892B09F420E0822F089580E0C4
:1003000090E0892B29F00E94750181110C94000066
:100310000895CF93DF9390E0FC01E851FF4F2491C3
:100320008C529F4FFC0184918823C9F090E0880F84
:10033000991FFC01E653FF4FA591B491FC01E054D5
:10034000FF4FC591D49161110DC09FB7F8948C9166
:10035000209582238C938881282328839FBFDF9157
:10036000CF910895623051F49FB7F8943C91822F59
:10037000809583238C93E8812E2BEFCF8FB7F89451
:10038000EC912E2B2C938FBFEACFCF93C82F80FFF9
:1003900004C060E080E00E948901C1FF04C060E009
:1003A00081E00E948901C2FF04C060E082E00E94F7
:1003B0008901C3FF04C060E083E00E948901C4FF9B
:1003C00004C060E084E00E948901C5FF05C060E0D0
:1003D00085E0CF910C948901CF910895AF92BF929F
:1003E000CF92DF92EF92FF920F931F93CF93DF9301
:1003F0006C017B018B01040F151FEB015E01AE1830
:10040000BF08C017D10759F06991D601ED91FC9151
:100410000190F081E02DC6010995892B79F7C5017E
:10042000DF91CF911F910F91FF90EF90DF90CF90D0
:10043000BF90AF90089581E0089587E08CBF95EE5E
:100440009BBF1ABE8CBF86EE8BBF1ABE089590E08C
:1004500080E0089597E09CBF87EE8BBF2AB79CBFD2
:1004600088EE8BBF8AB7322F282F9CBF85EE8BBFBB
:100470008AB79CBF96EE9BBF9AB789279827892792
:10048000821B930B4817590708F4CA01A901475169
:10049000584FFB01DB01A80FB91FEA17FB0739F022
:1004A0005CBF4BBF6AB761934F5F5F4FF6CF280FBA
:1004B000391F47E04CBF57EE5BBF3ABF4CBF38EE29
:1004C0003BBF2ABF0895CF93DF931F92CDB7DEB70E
:1004D000DC01ED91FC91028CF38DE02D41E050E0C8
:1004E000BE016F5F7F4F09951816190634F4898194
:1004F00090E00F90DF91CF9108958FEF9FEFF9CFAC
:10050000FC0197E09CBF85EE8BBF8AB79CBF26EEAF
:100510002BBF6AB79CBF27EE2BBF2AB79CBF98EEB4
:100520009BBF3AB71CBE90E19BBF9AB71CBE4FE081
:100530004BBF4AB71CBE5EE05BBF5AB71CBE7DE036
:100540007BBF7AB7708B518B428B938B1CBE91E132
:100550009BBF4AB71CBE92E19BBF9AB7542F492F4D
:10056000558B448B982F862F232732272327821BD6
:10057000930B08951CBE83E18BBF8AB71CBE94E128
:100580009BBF9AB7892798278927FB019C012B5E7F
:100590003F4FDB01A40FB51FEA17FB0739F061914C
:1005A0003CBF2BBF6ABF2F5F3F4FF6CF480F591F8D
:1005B0001CBE83E18BBF5ABF1CBE84E18BBF4ABF08
:1005C00090E080E00895CF93DF931F92CDB7DEB720
:1005D0006983DC01ED91FC910280F381E02D41E023
:1005E00050E0BE016F5F7F4F09950F90DF91CF9173
:1005F00008951CBE1BBE8FEF8ABF1CBE1BBE82E0CF
:100600008ABF90E080E00895FB01328123819481CC
:1006100085811CBE1BBE61E06ABF1CBE6DE06BBF66
:100620003ABF1CBE3EE03BBF2ABF1CBE2FE02BBF23
:100630009ABF1CBE90E19BBF8ABF1CBE81E18BBFED
:100640005ABF1CBE82E18BBF4ABF81E090E0089593
:100650000895DC01ED91FC91008CF18DE02D099461
:100660001CBE8BE08BBF7ABF1CBE8CE08BBF6ABF09
:100670001CBE1BBE83E08ABF81E00895FC01848913
:10068000958908952EE331E0FC0131832083FB013D
:100690004089518962897389FC0142835383648351
:1006A00075830895DC01ED91FC91028CF38DE02DB2
:1006B000099490E080E00895FC01DB01808120E254
:1006C000829FC0011124218144E0249F90011124C4
:1006D000822B8C93828111968C9311978181882330
:1006E00079F0339690E040E0019740F02191082E98
:1006F00001C0220F0A94EAF7422BF6CF12964C93D0
:100700000895FB0101900020E9F73197AF01461BE6
:10071000570BDC01ED91FC910280F381E02D0994EF
:100720008F929F92AF92BF92EF92FF920F931F937F
:10073000CF93DF93CDB7DEB7A1970FB6F894DEBFA6
:100740000FBECDBF7C01FA01CB0119A2223008F403
:100750002AE08E010F5D1F4F822E912CB12CA12C0F
:10076000BF01A50194010E944208F901CA016A3043
:100770000CF5605DD8016E938D01232B242B252B66
:1007800079F790E080E0109721F0BD01C7010E9449
:100790008103A1960FB6F894DEBF0FBECDBFDF91E7
:1007A000CF911F910F91FF90EF90BF90AF909F90CE
:1007B0008F900895695CDECFCF92DF92EF92FF9227
:1007C000CF93DF936C01990FEE08FF08F7FE1BC073
:1007D0006DE282EC92E00E940801EC01442755276B
:1007E000BA014C195D096E097F092AE082EC92E09A
:1007F0000E9490038C0F9D1FDF91CF91FF90EF908F
:10080000DF90CF9008952AE0B701A60182EC92E034
:10081000DF91CF91FF90EF90DF90CF900C949003F9
:100820008F929F92AF92BF92CF92DF92EF92FF9200
:100830000F931F93CF93DF937C01EB016C0182E058
:10084000C80ED11C4701E5E08E0E911C10E000E0BF
:10085000F60141916F0150E070E060E02AE0CE01C6
:100860000E9490035C01E881F9810190F081E02D04
:100870006EE2CE0109958A0D9B1D080F191FC81441
:10088000D90431F7F701458150E070E060E02AE0DB
:10089000CE010E949003800F911FDF91CF911F9195
:1008A0000F91FF90EF90DF90CF90BF90AF909F900F
:1008B0008F900895CF93DF93BC0182EC92E00E9469
:1008C0008103EC0160E471E082EC92E00E9481031C
:1008D0008C0F9D1FDF91CF910895CF93DF93C8E6D2
:1008E000D0E0FE016491662339F082EC92E00E9430
:1008F00008012196892BA9F760E471E082EC92E06F
:100900000E948103989590E080E0DF91CF91089557
:100910001F920F920FB60F9211242F933F938F9334
:100920009F93AF93BF938091BE029091BF02A0911D
:10093000C002B091C1023091BD0223E0230F2D37D8
:1009400058F50196A11DB11D2093BD028093BE02F2
:100950009093BF02A093C002B093C1028091B902EC
:100960009091BA02A091BB02B091BC020196A11D68
:10097000B11D8093B9029093BA02A093BB02B093C9
:10098000BC02BF91AF919F918F913F912F910F909A
:100990000FBE0F901F90189526E8230F0296A11DF9
:1009A000B11DD2CF1F920F920FB60F9211242F9329
:1009B0003F934F935F936F937F938F939F93AF93E7
:1009C000BF93EF93FF9382EC92E00E94E600FF91C9
:1009D000EF91BF91AF919F918F917F916F915F91B7
:1009E0004F913F912F910F900FBE0F901F90189530
:1009F0001F920F920FB60F9211242F938F939F93F4
:100A0000EF93FF93E091D202F091D3028081E091C5
:100A1000D802F091D90282FD1BC090818091DB0247
:100A20008F5F8F732091DC02821741F0E091DB022F
:100A3000F0E0EE53FD4F958F8093DB02FF91EF9135
:100A40009F918F912F910F900FBE0F901F9018952F
:100A50008081F4CFE2ECF2E01382128248EE53E0A0
:100A600060E070E0448355836683778384E091E09F
:100A70009183808385EC90E09587848784EC90E077
:100A80009787868780EC90E0918B808B81EC90E05B
:100A9000938B828B82EC90E0958B848B86EC90E03C
:100AA000978B868B118E128E138E148EEFE5F3E0EA
:100AB0008EE391E0918380831282138214821582E7
:100AC000EDE6F3E091838083128213821482158213
:100AD000E5E6F3E09183808312821382148215820B
:100AE000E3E7F3E0918380831282138214821582FC
:100AF000E9E7F3E0918380831282138214821582E6
:100B0000E0EAF3E0918380831282138214821582DB
:100B1000E5E8F3E01382128244835583668377838A
:100B200026E131E03183208397878687108A118AF6
:100B3000128A138A24E0208FEFE7F3E09183808309
:100B400080EC828388EA838388E384838CE68583D0
:100B50000895CF93DF93CDB7DEB7C355D1090FB654
:100B6000F894DEBF0FBECDBF789484B5826084BD9B
:100B700084B5816084BD85B5826085BD85B58160A1
:100B800085BD80916E00816080936E00109281001F
:100B900080918100826080938100809181008160DA
:100BA000809381008091800081608093800080919B
:100BB000B10084608093B1008091B0008160809327
:100BC000B00080917A00846080937A0080917A00EE
:100BD000826080937A0080917A00816080937A00AD
:100BE00080917A00806880937A001092C10088E03A
:100BF00080936703809368038093690380936A03FB
:100C000081E090E00E94C50182E090E00E94C50171
:100C100084E090E00E94C50188E090E00E94C50158
:100C200080E190E00E94C50180E290E00E94C50151
:100C300069EB72E285E893E00E94300383E491E07F
:100C40000E945A048E010F5F1F4F83E2F801119238
:100C50008A95E9F781E08B83BE01695B7F4FC8010C
:100C60000E945C038EE391E09DA38CA3809181039D
:100C700090918203A0918303B09184038EA39FA3DC
:100C8000A8A7B9A748EB52E2BE016C5D7F4F85E88B
:100C900093E00E94040343E050E0BE01695B7F4F94
:100CA00085E893E00E94BA0285E893E00E94F90289
:100CB00087E591E00E945A047E01F0E5EF0EF11CF9
:100CC00061EB462E62E0562E88248394912C5E01BF
:100CD00045E0A40EB11C45E0642E712C5EE3C52EE8
:100CE00051E0D52E30E0232E30E0332E85E893E01E
:100CF0000E948002181619060CF0AEC0F70143E0FE
:100D000011924A95E9F743E050E0B70185E893E096
:100D10000E942A02F7018081A82FA295A695A770AC
:100D200090E09595879595958795877009F49EC174
:100D30006281282F30E0FE01B79670E02150310922
:100D400050F0AB01022E02C0559547950A94E2F788
:100D500041704193F3CFA53009F498C008F088C0E2
:100D6000A33009F08BC088E791E00E945A041092EA
:100D7000B8021092B70286E0F20111928A95E9F763
:100D80008091AF029091B0029C012F5F3F4F309352
:100D9000B0022093AF02009709F05EC01092AE023D
:100DA000E8EAF2E040B351B301969301281B390BF6
:100DB000B40102C0660F771F2A95E2F79B0160918C
:100DC000AE02082E02C0569547950A94E2F740FFFE
:100DD00058C078E47083262B2093AE02319685307C
:100DE000910501F71092AD024091990350919A0339
:100DF000DA82C9828091950390919603A09197031E
:100E0000B09198038B839C83AD83BE83B80185E842
:100E100093E00E9404038FE1F50111928A95E9F7AE
:100E200084E0898381E08A8386E08B838091AE02AF
:100E30008C83BE01695B7F4FC8010E945C0343E065
:100E400050E0BE01695B7F4F85E893E00E94BA02E3
:100E500085E893E00E94F9022114310409F446CF99
:100E60000E947501882309F43DCF0E94000033CF12
:100E7000A63009F4CFC0A73009F4EAC088E892E0B0
:100E8000DDC044E5408320952623A6CF813021F79D
:100E90008FA1813009F09BC0F8E46496FFAF64979E
:100EA0008091B7029091B80201969093B802809316
:100EB000B70244E050E062EB72E081EB92E00E9406
:100EC0006A0864966FAD64976093B5021092B6029B
:100ED000F20101900020E9F7CF01825B924067E8C0
:100EE00071E0059708F478C082EC92E00E948103DB
:100EF0008091B7029091B8020E94DC036FE971E023
:100F000082EC92E00E94810364966FAD649782EC5C
:100F100092E00E9408016EE871E082EC92E00E948B
:100F2000810362E971E082EC92E00E94810385E036
:100F300090E00E94DC0368E971E082EC92E00E949C
:100F4000810381EB92E00E945A0468EA72E081EB2F
:100F500092E00E947C08892B09F07ECF8FE1F50199
:100F600011928A95E9F786E0898381E08A8398E087
:100F70009B838C83BE01635B7F4FC8010E945C032F
:100F800082EA91E00E945A044091990350919A0399
:100F90002996DFAECEAE2997809195039091960366
:100FA000A0919703B09198032D968CAF9DAFAEAFF3
:100FB000BFAF2D97BE01695B7F4F85E893E00E942C
:100FC000040343E050E0BE01635B7F4F3DCF44E547
:100FD00064964FAF649764CF82EC92E00E948103E5
:100FE0008091B7029091B8020E94DC036FE971E032
:100FF00082EC92E00E94810364966FAD649782EC6C
:1010000092E00E94080160E471E082EC92E00E94AC
:1010100081039BCF813009F01FCF8FA1813089F4EC
:101020008DEC91E00E945A048BEF91E00E945A04EB
:101030008DEC91E00E945A0482E491E00E945A04EF
:101040000BCF8DEC91E00E945A048AE292E0EECF41
:10105000813009F001CF8DEC91E00E945A0489E5BE
:1010600092E00E945A048DEC91E0E8CFA53009F49B
:10107000F3CE08F475CEA63009F4EECEA73009F40D
:10108000EBCEFCCEA1E21A2EAA1BBB1BFD010DC0AC
:10109000AA1FBB1FEE1FFF1FA217B307E407F50728
:1010A00020F0A21BB30BE40BF50B661F771F881F04
:1010B000991F1A9469F760957095809590959B019A
:1010C000AC01BD01CF010895EE0FFF1F0590F49113
:1010D000E02D09946817790768F4FB01DC01E40F3F
:1010E000F51FA40FB51F02C002900E924150504050
:1010F000D8F708950C948508FB01DC018D910190CF
:1011000080190110D9F3990B0895FB01DC0102C08D
:1011100001900D9241505040D8F70895F894FFCFB8
:10112000000000000801EE01A9005501DA00B80036
:10113000CC0000000000E302BA0259031D0229039B
:10114000630227023003280304036D04F9028002BE
:101150002A02520342033E031B0200000000100457
:101160000D0A0055445020636C69656E74207374D9
:1011700061727465642E00524547495354455220AC
:101180006D6573736167652073656E7420746F207D
:101190007365727665722E0047616D6520737461A8
:1011A0007274696E672100546F73733A2000207C5B
:1011B00020004C617374200020746F737365733A60
:1011C00020005061747465726E206D61746368658F
:1011D00064212053656E64696E6720726573756C57
:1011E0007420746F207365727665722E002D2D2D1C
:1011F0002D2D2D2D2D2D2D2D2D2D2D2D2D2D2D2D1F
:101200002D2D2D2D2D2D2D2D2D2D2D2D2D2D2D2D0E
:101210002D2D2D2D2D2D2D2D2D0A007C2020202033
:101220002020202020202020202020202020596F36
:101230007520776F6E212020202020202020202064
:10124000202020202020207C0A007C20202020201C
:1012500020202020202020202020202020596F75B1
:10126000206C6F737421202020202020202020203B
:101270002020202020207C0A007C202020202020EC
:1012800020202020202020202047616D65206669D5
:101290006E69736865642120202020202020202092
:1012A00020202020207C0A00556E6B6E6F776E2008
:1012B0006D6573736167652074797065207265630D
:0812C00065697665642E0000EB
:00000001FF
